{
  "_format": "hh-sol-artifact-1",
  "contractName": "Transactions",
  "sourceName": "contracts/Transactions.sol",
  "abi": [
    {
      "inputs": [],
      "stateMutability": "nonpayable",
      "type": "constructor"
    },
    {
      "anonymous": false,
      "inputs": [
        {
          "indexed": false,
          "internalType": "address",
          "name": "from",
          "type": "address"
        },
        {
          "indexed": false,
          "internalType": "address",
          "name": "receiver",
          "type": "address"
        },
        {
          "indexed": false,
          "internalType": "uint256",
          "name": "amount",
          "type": "uint256"
        },
        {
          "indexed": false,
          "internalType": "string",
          "name": "message",
          "type": "string"
        },
        {
          "indexed": false,
          "internalType": "uint256",
          "name": "timestamp",
          "type": "uint256"
        },
        {
          "indexed": false,
          "internalType": "string",
          "name": "keyword",
          "type": "string"
        }
      ],
      "name": "Transfer",
      "type": "event"
    },
    {
      "inputs": [
        {
          "internalType": "address payable",
          "name": "receiver",
          "type": "address"
        },
        {
          "internalType": "string",
          "name": "message",
          "type": "string"
        },
        {
          "internalType": "string",
          "name": "keyword",
          "type": "string"
        }
      ],
      "name": "addToBlockchain",
      "outputs": [],
      "stateMutability": "payable",
      "type": "function"
    },
    {
      "inputs": [],
      "name": "getAllTransactions",
      "outputs": [
        {
          "components": [
            {
              "internalType": "address",
              "name": "sender",
              "type": "address"
            },
            {
              "internalType": "address",
              "name": "receiver",
              "type": "address"
            },
            {
              "internalType": "uint256",
              "name": "amount",
              "type": "uint256"
            },
            {
              "internalType": "string",
              "name": "message",
              "type": "string"
            },
            {
              "internalType": "uint256",
              "name": "timestamp",
              "type": "uint256"
            },
            {
              "internalType": "string",
              "name": "keyword",
              "type": "string"
            }
          ],
          "internalType": "struct Transactions.TransferStruct[]",
          "name": "",
          "type": "tuple[]"
        }
      ],
      "stateMutability": "view",
      "type": "function"
    },
    {
      "inputs": [],
      "name": "getTransactionsCount",
      "outputs": [
        {
          "internalType": "uint256",
          "name": "",
          "type": "uint256"
        }
      ],
      "stateMutability": "view",
      "type": "function"
    },
    {
      "inputs": [],
      "name": "transactionsCount",
      "outputs": [
        {
          "internalType": "uint256",
          "name": "",
          "type": "uint256"
        }
      ],
      "stateMutability": "view",
      "type": "function"
    }
  ],
  "bytecode": "0x608060405234801561001057600080fd5b50610e14806100206000396000f3fe60806040526004361061003f5760003560e01c806327506f5314610044578063578cb8f91461006f57806396a4550c1461009a578063fd99a746146100b6575b600080fd5b34801561005057600080fd5b506100596100e1565b6040516100669190610722565b60405180910390f35b34801561007b57600080fd5b50610084610324565b6040516100919190610753565b60405180910390f35b6100b460048036038101906100af91906108f5565b61032d565b005b3480156100c257600080fd5b506100cb6104e0565b6040516100d89190610753565b60405180910390f35b60606001805480602002602001604051908101604052809291908181526020016000905b8282101561031b57838290600052602060002090600602016040518060c00160405290816000820160009054906101000a900473ffffffffffffffffffffffffffffffffffffffff1673ffffffffffffffffffffffffffffffffffffffff1673ffffffffffffffffffffffffffffffffffffffff1681526020016001820160009054906101000a900473ffffffffffffffffffffffffffffffffffffffff1673ffffffffffffffffffffffffffffffffffffffff1673ffffffffffffffffffffffffffffffffffffffff168152602001600282015481526020016003820180546101ee906109af565b80601f016020809104026020016040519081016040528092919081815260200182805461021a906109af565b80156102675780601f1061023c57610100808354040283529160200191610267565b820191906000526020600020905b81548152906001019060200180831161024a57829003601f168201915b505050505081526020016004820154815260200160058201805461028a906109af565b80601f01602080910402602001604051908101604052809291908181526020018280546102b6906109af565b80156103035780601f106102d857610100808354040283529160200191610303565b820191906000526020600020905b8154815290600101906020018083116102e657829003601f168201915b50505050508152505081526020019060010190610105565b50505050905090565b60008054905090565b600160008082825461033f9190610a0f565b9250508190555060016040518060c001604052803373ffffffffffffffffffffffffffffffffffffffff1681526020018573ffffffffffffffffffffffffffffffffffffffff16815260200134815260200184815260200142815260200183815250908060018154018082558091505060019003906000526020600020906006020160009091909190915060008201518160000160006101000a81548173ffffffffffffffffffffffffffffffffffffffff021916908373ffffffffffffffffffffffffffffffffffffffff16021790555060208201518160010160006101000a81548173ffffffffffffffffffffffffffffffffffffffff021916908373ffffffffffffffffffffffffffffffffffffffff1602179055506040820151816002015560608201518160030190816104779190610bef565b506080820151816004015560a08201518160050190816104979190610bef565b5050507f416cfa4330a4565f45c2fd2dd4826a83a37443aba2ce6f79477c7355afac35fa3384348542866040516104d396959493929190610d6f565b60405180910390a1505050565b60005481565b600081519050919050565b600082825260208201905092915050565b6000819050602082019050919050565b600073ffffffffffffffffffffffffffffffffffffffff82169050919050565b600061053d82610512565b9050919050565b61054d81610532565b82525050565b6000819050919050565b61056681610553565b82525050565b600081519050919050565b600082825260208201905092915050565b60005b838110156105a657808201518184015260208101905061058b565b60008484015250505050565b6000601f19601f8301169050919050565b60006105ce8261056c565b6105d88185610577565b93506105e8818560208601610588565b6105f1816105b2565b840191505092915050565b600060c0830160008301516106146000860182610544565b5060208301516106276020860182610544565b50604083015161063a604086018261055d565b506060830151848203606086015261065282826105c3565b9150506080830151610667608086018261055d565b5060a083015184820360a086015261067f82826105c3565b9150508091505092915050565b600061069883836105fc565b905092915050565b6000602082019050919050565b60006106b8826104e6565b6106c281856104f1565b9350836020820285016106d485610502565b8060005b8581101561071057848403895281516106f1858261068c565b94506106fc836106a0565b925060208a019950506001810190506106d8565b50829750879550505050505092915050565b6000602082019050818103600083015261073c81846106ad565b905092915050565b61074d81610553565b82525050565b60006020820190506107686000830184610744565b92915050565b6000604051905090565b600080fd5b600080fd5b600061078d82610512565b9050919050565b61079d81610782565b81146107a857600080fd5b50565b6000813590506107ba81610794565b92915050565b600080fd5b600080fd5b7f4e487b7100000000000000000000000000000000000000000000000000000000600052604160045260246000fd5b610802826105b2565b810181811067ffffffffffffffff82111715610821576108206107ca565b5b80604052505050565b600061083461076e565b905061084082826107f9565b919050565b600067ffffffffffffffff8211156108605761085f6107ca565b5b610869826105b2565b9050602081019050919050565b82818337600083830152505050565b600061089861089384610845565b61082a565b9050828152602081018484840111156108b4576108b36107c5565b5b6108bf848285610876565b509392505050565b600082601f8301126108dc576108db6107c0565b5b81356108ec848260208601610885565b91505092915050565b60008060006060848603121561090e5761090d610778565b5b600061091c868287016107ab565b935050602084013567ffffffffffffffff81111561093d5761093c61077d565b5b610949868287016108c7565b925050604084013567ffffffffffffffff81111561096a5761096961077d565b5b610976868287016108c7565b9150509250925092565b7f4e487b7100000000000000000000000000000000000000000000000000000000600052602260045260246000fd5b600060028204905060018216806109c757607f821691505b6020821081036109da576109d9610980565b5b50919050565b7f4e487b7100000000000000000000000000000000000000000000000000000000600052601160045260246000fd5b6000610a1a82610553565b9150610a2583610553565b9250828201905080821115610a3d57610a3c6109e0565b5b92915050565b60008190508160005260206000209050919050565b60006020601f8301049050919050565b600082821b905092915050565b600060088302610aa57fffffffffffffffffffffffffffffffffffffffffffffffffffffffffffffffff82610a68565b610aaf8683610a68565b95508019841693508086168417925050509392505050565b6000819050919050565b6000610aec610ae7610ae284610553565b610ac7565b610553565b9050919050565b6000819050919050565b610b0683610ad1565b610b1a610b1282610af3565b848454610a75565b825550505050565b600090565b610b2f610b22565b610b3a818484610afd565b505050565b5b81811015610b5e57610b53600082610b27565b600181019050610b40565b5050565b601f821115610ba357610b7481610a43565b610b7d84610a58565b81016020851015610b8c578190505b610ba0610b9885610a58565b830182610b3f565b50505b505050565b600082821c905092915050565b6000610bc660001984600802610ba8565b1980831691505092915050565b6000610bdf8383610bb5565b9150826002028217905092915050565b610bf88261056c565b67ffffffffffffffff811115610c1157610c106107ca565b5b610c1b82546109af565b610c26828285610b62565b600060209050601f831160018114610c595760008415610c47578287015190505b610c518582610bd3565b865550610cb9565b601f198416610c6786610a43565b60005b82811015610c8f57848901518255600182019150602085019450602081019050610c6a565b86831015610cac5784890151610ca8601f891682610bb5565b8355505b6001600288020188555050505b505050505050565b610cca81610532565b82525050565b6000610ceb610ce6610ce184610512565b610ac7565b610512565b9050919050565b6000610cfd82610cd0565b9050919050565b6000610d0f82610cf2565b9050919050565b610d1f81610d04565b82525050565b600082825260208201905092915050565b6000610d418261056c565b610d4b8185610d25565b9350610d5b818560208601610588565b610d64816105b2565b840191505092915050565b600060c082019050610d846000830189610cc1565b610d916020830188610d16565b610d9e6040830187610744565b8181036060830152610db08186610d36565b9050610dbf6080830185610744565b81810360a0830152610dd18184610d36565b905097965050505050505056fea26469706673582212207a819e602193f9d80b35d3e5f7c3303491c8987f1b7f53dd079fb26147d94c4764736f6c63430008120033",
  "linkReferences": {},
  "deployedLinkReferences": {}
}